:020000040800F2
:10000000000002205D260008DD180008EB1800083B
:10001000F1180008F7180008FD180008000000009B
:1000200000000000000000000000000003190008AC
:1000300011190008000000001F1900082D19000800
:10004000B1260008B1260008B1260008B126000834
:10005000B1260008B1260008B1260008B126000824
:10006000B1260008B1260008B1260008B126000814
:10007000B1260008B1260008B1260008B126000804
:10008000B1260008B12600083D190008B126000875
:10009000B1260008B1260008B1260008B1260008E4
:1000A000B1260008B1260008B1260008B1260008D4
:1000B000B1260008B1260008B1260008B1260008C4
:1000C000B1260008B1260008B1260008B1260008B4
:1000D000B1260008B1260008B1260008B1260008A4
:1000E000B1260008B1260008B1260008B126000894
:1000F000B126000865190008B1260008B1260008DD
:10010000B1260008B1260008B126000881190008B0
:10011000B1260008B126000895190008B12600088C
:10012000A9190008BD190008D1190008B126000856
:10013000B12600080000000000000000B126000801
:10014000B1260008B1260008B1260008E51900080C
:10015000B1260008B1260008B1260008B126000823
:10016000B1260008B1260008B1260008B126000813
:10017000B1260008B12600080000000000000000C1
:08018000B1260008B1260008B9
:1001900010B5054C237833B9044B13B10448AFF3C1
:1001A00000800123237010BDB00500200000000076
:1001B000EC24010808B5034B1BB103490348AFF316
:1001C000008008BD00000000B4050020EC240108F8
:1001D000034613F8012B002AFBD1181A0138704787
:1001E00001F0FF01102A2BDB10F0070F08D010F8E8
:1001F000013B013A8B422DD010F0070F42B3F6D1EC
:10020000F0B441EA012141EA014122F007047FF004
:1002100000070023F0E80256083C85EA010586EA5B
:10022000010685FA47F5A3FA87F586FA47F6A5FA97
:1002300087F68EB9EED1F0BC01F0FF0102F00702A3
:1002400032B110F8013B013A83EA010313B1F8D14E
:100250000020704701387047002D06BF354603382F
:10026000073815F0010F07D1013015F4807F02BF68
:10027000013015F4C03F0130F0BC0138704700BFB9
:1002800070B54FF0FF0C4CF4E06C1CEA11541DBF2C
:100290001CEA135594EA0C0F95EA0C0F00F0DEF8F7
:1002A0002C4481EA030621EA4C5123EA4C5350EADC
:1002B000013518BF52EA033541F4801143F480132D
:1002C00038D0A0FB02CE4FF00005E1FB02E506F0BE
:1002D0000042E0FB03E54FF00006E1FB03569CF013
:1002E000000F18BF4EF0010EA4F1FF04B6F5007F19
:1002F00064F5407404D25FEA4E0E6D4146EB06068B
:1003000042EAC62141EA55514FEAC52040EA5E5013
:100310004FEACE2EB4F1FD0C88BFBCF5E06F1ED8BD
:10032000BEF1004F08BF5FEA500E50F1000041EBF4
:10033000045170BD06F0004646EA010140EA0200A1
:1003400081EA0301B4EB5C04C2BFD4EB0C0541EAC3
:10035000045170BD41F480114FF0000E013C00F3D8
:10036000AB8014F1360FDEBF002001F0004170BDFC
:10037000C4F10004203C35DA0C341BDC04F1140415
:10038000C4F1200500FA05F320FA04F001FA05F2A1
:1003900040EA020001F0004221F0004110EBD3706E
:1003A00021FA04F642EB06015EEA430E08BF20EA9A
:1003B000D37070BDC4F10C04C4F1200500FA04F33D
:1003C00020FA05F001FA04F240EA020001F00041CF
:1003D00010EBD37041F100015EEA430E08BF20EA42
:1003E000D37070BDC4F1200500FA05F24EEA020E8A
:1003F00020FA04F301FA05F243EA020321FA04F0B9
:1004000001F0004121FA04F220EA020000EBD3706F
:100410005EEA430E08BF20EAD37070BD94F0000F6F
:100420000FD101F00046400041EB010111F4801FA3
:1004300008BF013CF7D041EA060195F0000F18BF54
:10044000704703F00046520043EB030313F4801F90
:1004500008BF013DF7D043EA0603704794EA0C0F4A
:100460000CEA135518BF95EA0C0F0CD050EA410660
:1004700018BF52EA4306D1D181EA030101F00041DD
:100480004FF0000070BD50EA410606BF1046194605
:1004900052EA430619D094EA0C0F02D150EA013611
:1004A00013D195EA0C0F05D152EA03361CBF104652
:1004B00019460AD181EA030101F0004141F0FE41F1
:1004C00041F470014FF0000070BD41F0FE4141F475
:1004D000780170BD81F0004102E000BF83F000436D
:1004E00030B54FEA41044FEA430594EA050F08BFCF
:1004F00090EA020F1FBF54EA000C55EA020C7FEA93
:10050000645C7FEA655C00F0E2804FEA5454D4EB0F
:100510005555B8BF6D420CDD2C4480EA020281EAD9
:10052000030382EA000083EA010180EA020281EA11
:100530000303362D88BF30BD11F0004F4FEA013163
:100540004FF4801C4CEA113102D0404261EB410172
:1005500013F0004F4FEA03334CEA133302D05242F8
:1005600063EB430394EA050F00F0A780A4F10104B4
:10057000D5F1200E0DDB02FA0EFC22FA05F28018EE
:1005800041F1000103FA0EF2801843FA05F35941D4
:100590000EE0A5F120050EF1200E012A03FA0EFC53
:1005A00028BF4CF0020C43FA05F3C01851EBE3717D
:1005B00001F0004507D54FF0000EDCF1000C7EEB9A
:1005C00000006EEB0101B1F5801F1BD3B1F5001FD8
:1005D0000CD349085FEA30004FEA3C0C04F10104F7
:1005E0004FEA445212F5800F80F09A80BCF1004F20
:1005F00008BF5FEA500C50F1000041EB045141EAA2
:10060000050130BD5FEA4C0C404141EB0101013C6A
:1006100028BFB1F5801FE9D291F0000F04BF014659
:100620000020B1FA81F308BF2033A3F10B03B3F12B
:1006300020020CDA0C3208DD02F1140CC2F10C02BB
:1006400001FA0CF021FA02F10CE002F11402D8BF19
:10065000C2F1200C01FA02F120FA0CFCDCBF41EAE5
:100660000C019040E41AA2BF01EB0451294330BDB4
:100670006FEA04041F3C1CDA0C340EDC04F1140491
:10068000C4F1200220FA04F001FA02F340EA030068
:1006900021FA04F345EA030130BDC4F10C04C4F1AE
:1006A000200220FA02F001FA04F340EA030029468E
:1006B00030BD21FA04F0294630BD94F0000F83F4D8
:1006C000801306BF81F480110134013D4EE77FEABB
:1006D000645C18BF7FEA655C29D094EA050F08BF07
:1006E00090EA020F05D054EA000C04BF19461046E8
:1006F00030BD91EA030F1EBF0021002030BD5FEA2C
:10070000545C05D14000494128BF41F0004130BD53
:1007100014F580043CBF01F5801130BD01F00045A7
:1007200045F0FE4141F470014FF0000030BD7FEA1A
:10073000645C1ABF194610467FEA655C1CBF0B4615
:10074000024650EA013406BF52EA033591EA030F2C
:1007500041F4002130BD00BF90F0000F04BF002124
:10076000704730B54FF4806404F132044FF0000557
:100770004FF0000150E700BF90F0000F04BF0021D0
:10078000704730B54FF4806404F1320410F0004536
:1007900048BF40424FF000013EE700BF42004FEA31
:1007A000E2014FEA31014FEA02701FBF12F07F43AE
:1007B00093F07F4F81F06051704732F07F4208BF65
:1007C000704793F07F4F04BF41F40021704730B56C
:1007D0004FF4607401F0004521F000411CE700BFB8
:1007E00050EA010208BF704730B54FF000050AE03B
:1007F00050EA010208BF704730B511F0004502D53C
:10080000404261EB41014FF4806404F132045FEA3D
:10081000915C3FF4D8AE4FF003025FEADC0C18BFE6
:1008200003325FEADC0C18BF033202EBDC02C2F1D8
:10083000200300FA03FC20FA02F001FA03FE40EA6A
:100840000E0021FA02F11444BDE600BF4FF0FF3C58
:1008500006E000BF4FF0010C02E000BF4FF0010CBA
:100860004DF804CD4FEA410C7FEA6C5C4FEA430C33
:1008700018BF7FEA6C5C1BD001B050EA410C0CBF82
:1008800052EA430C91EA030F02BF90EA020F0020E4
:10089000704710F1000F91EA030F58BF994208BF4B
:1008A00090422CBFD8176FEAE37040F00100704708
:1008B0004FEA410C7FEA6C5C02D150EA013C07D15F
:1008C0004FEA430C7FEA6C5CD6D152EA033CD3D0AA
:1008D0005DF8040B704700BF8446104662468C46A4
:1008E0001946634600E000BF01B5FFF7B7FF0028D7
:1008F00048BF10F1000F01BD4DF808EDFFF7F4FF00
:100900000CBF012000205DF808FB00BF4DF808ED8A
:10091000FFF7EAFF34BF012000205DF808FB00BFAD
:100920004DF808EDFFF7E0FF94BF012000205DF8CF
:1009300008FB00BF4DF808EDFFF7CEFF94BF012084
:1009400000205DF808FB00BF4DF808EDFFF7C4FF7D
:1009500034BF012000205DF808FB00BF4FEA4102D0
:10096000B2F1E04324BFB3F5001CDCF1FE5C0DD90D
:1009700001F0004C4FEAC0024CEA5070B2F1004F57
:1009800040EB830008BF20F00100704711F0804F5A
:1009900021D113F13872BCBF01F00040704741F41F
:1009A00080114FEA5252C2F11802C2F1200C10FA23
:1009B0000CF320FA02F018BF40F001004FEAC12307
:1009C0004FEAD32303FA0CFC40EA0C0023FA02F3AB
:1009D0004FEA4303CCE77FEA625307D150EA013381
:1009E0001EBF4FF0FE4040F44000704701F0004051
:1009F00040F0FE4040F40000704700BF53B94AB9D0
:100A0000002908BF00281CBF4FF0FF314FF0FF3016
:100A100000F070B9ADF1080C6DE904CE00F006F8F5
:100A2000DDF804E0DDE9022304B070472DE9F0476A
:100A3000089E0D4604460F46002B4AD18A42944632
:100A400065D9B2FA82F343B102FA03FCC3F1200282
:100A50009F4020FA02F217439C404FEA1C4E1FFAB7
:100A60008CF5B7FBFEF1220C0EFB117742EA074230
:100A700001FB05F090420AD91CEB020201F1FF379D
:100A800080F01C81904240F2198102396244121AAE
:100A9000A4B2B2FBFEF00EFB102244EA024400FBBB
:100AA00005F5A5420AD91CEB040400F1FF3280F0E1
:100AB0000781A54240F204816444023840EA0140C3
:100AC000641B00211EB1DC400023C6E90043BDE8E1
:100AD000F0878B4208D9002E00F0ED800021C6E996
:100AE00000050846BDE8F087B3FA83F1002949D133
:100AF000AB4202D3824200F2F880841A65EB030213
:100B000001201746002EE2D0C6E90047DFE702B910
:100B1000FFDEB2FA82F3002B40F090808A1A4FEA8F
:100B20001C471FFA8CFE0121B2FBF7F507FB1520CD
:100B3000220C42EA00420EFB05F0904208D91CEB61
:100B4000020205F1FF3802D2904200F2CB80454606
:100B5000121AA4B2B2FBF7F007FB102244EA0244D7
:100B60000EFB00FEA64508D91CEB040400F1FF3281
:100B700002D2A64500F2BB801046A4EB0E0440EA68
:100B800005409FE7C1F120078B4022FA07FC4CEAA1
:100B9000030C05FA01F420FA07F3FD404FEA1C4963
:100BA0002343B5FBF9F81FFA8CFE09FB18551C0C02
:100BB00044EA054408FB0EF5A54202FA01F200FAE8
:100BC00001F00BD91CEB040408F1FF3A80F0888097
:100BD000A54240F28580A8F102086444641B9DB2DE
:100BE000B4FBF9F309FB134445EA044403FB0EFE8E
:100BF000A64508D91CEB040403F1FF356CD2A645C9
:100C00006AD9023B644443EA0843A3FB0295A4EB80
:100C10000E04AC42C846AE4656D353D056B1B0EBE4
:100C2000080264EB0E0404FA07F7CA40CC401743ED
:100C3000C6E9007418460021BDE8F087C3F1200121
:100C400002FA03FC20FA01F225FA01F19D402A4341
:100C50004FEA1C471FFA8CFEB1FBF7F007FB10159B
:100C6000110C41EA054100FB0EF58D4204FA03F434
:100C700008D91CEB010100F1FF382FD28D422DD98C
:100C800002386144491B92B2B1FBF7F507FB15111D
:100C900042EA014205FB0EF1914208D91CEB020227
:100CA00005F1FF3816D2914214D9023D6244521A1E
:100CB00045EA004138E73146304608E73946E6E67E
:100CC0001046FBE64845A9D2B9EB020865EB0C0ECD
:100CD000013BA3E74546EAE72B4694E74046D1E7C8
:100CE000D0467BE7023D624432E708460AE76444A7
:100CF000023842E7704700BF80B590B000AF07F1FF
:100D0000340300221A605A609A6007F1240300221B
:100D10001A605A609A60DA603B1D20220021184652
:100D200010F06BFD414B424A1A60404B4FF4803249
:100D30005A603E4B00229A603C4B01221A613B4BA9
:100D400000221A76394B002283F82020374B4FF0CF
:100D50000052DA62354B4FF060629A62334B0022E8
:100D6000DA60324B0122DA61304B012283F8302005
:100D70002E4B00225A612D4801F002FD0346002B44
:100D800001D00BF0FFFC11237B634FF48043BB6366
:100D90000023FB6307F134031946244802F0CAFC20
:100DA0000346002B01D00BF0EDFC11237B620123E5
:100DB000BB620123FB6207F1240319461B4801F0C3
:100DC0008BFE0346002B01D00BF0DCFC11237B6073
:100DD0000123BB6002237B610123FB604FF40013FE
:100DE0003B624FF48033FB6100237B7600233B762C
:100DF00000233B613B1D19460C4802F005FB0346EE
:100E0000002B01D00BF0BEFC00237B600223BB60F3
:100E10003B1D1946054802F0F7FA0346002B01D0A6
:100E20000BF0B0FC00BF4037BD4680BD74220020EF
:100E30000020014080B58CB000AF07F120030022F4
:100E40001A605A609A60DA603B46202200211846F8
:100E500010F0D3FC314B324A1A60304B4FF48032E1
:100E60005A602E4B00229A602C4B01221A612B4BA8
:100E700000221A76294B002283F82020274B0022DB
:100E8000DA60264B0122DA61244B012283F83020FC
:100E9000224B01225A61214801F072FC0346002BCB
:100EA00001D00BF06FFC0D233B6201237B62012319
:100EB000BB6207F120031946184801F00DFE0346F6
:100EC000002B01D00BF05EFC0A233B6001237B600A
:100ED00002233B610123BB6001237B7500233B752B
:100EE0000023FB603B4619460C4802F08DFA03468E
:100EF000002B01D00BF046FC01233B6002237B60FA
:100F00003B461946054802F07FFA0346002B01D004
:100F10000BF038FC00BF3037BD4680BDCC2100202F
:100F20000021014080B58CB000AF07F12003002202
:100F30001A605A609A60DA603B4620220021184607
:100F400010F05BFC314B324A1A60304B4FF4803268
:100F50005A602E4B00229A602C4B01221A612B4BB7
:100F600000221A76294B002283F82020274B0022EA
:100F7000DA60264B0122DA61244B012283F830200B
:100F8000224B01225A61214801F0FAFB0346002B53
:100F900001D00BF0F7FB0C233B6201237B620123A2
:100FA000BB6207F120031946184801F095FD03467E
:100FB000002B01D00BF0E6FB0B233B6001237B6091
:100FC00002233B610123BB6001237B7500233B753A
:100FD0000023FB603B4619460C4802F015FA034615
:100FE000002B01D00BF0CEFB02233B6002237B6081
:100FF0003B461946054802F007FA0346002B01D08C
:101000000BF0C0FB00BF3037BD4680BDBC220020C6
:101010000022014080B590B000AF786007F12C034A
:1010200000221A605A609A60DA601A617B681B6855
:10103000734A93426ED10023BB62724B5B6C714A60
:1010400043F4807353646F4B5B6C03F48073BB6237
:10105000BB6A00237B626B4B1B6B6A4A43F0040341
:101060001363684B1B6B03F004037B627B6A0023F2
:101070003B62644B1B6B634A43F001031363614B98
:101080001B6B03F001033B623B6A0F23FB620323EC
:101090003B6300237B6307F12C0319465A4803F096
:1010A000C5FB5A4B5A4A1A60584B00225A60574B9C
:1010B00000229A60554B0022DA60544B4FF4806254
:1010C0001A61524B4FF400625A61504B4FF4005278
:1010D0009A614E4B4FF48072DA614C4B00221A62D7
:1010E0004A4B00225A62494802F010FE0346002B88
:1010F00001D00BF047FB7B68444A9A63434A7B6804
:10110000936300220021122002F086FD122002F0DB
:101110009FFDF9E07B681B683E4A934240F0808067
:101120000023FB61374B5B6C364A43F40073536416
:10113000344B5B6C03F40073FB61FB690023BB6100
:10114000304B1B6B2F4A43F0040313632D4B1B6B77
:1011500003F00403BB61BB6900237B61294B1B6B5C
:10116000284A43F001031363264B1B6B03F0010372
:101170007B617B690F23FB6203233B6300237B635B
:1011800007F12C031946204803F050FB224B234A59
:101190001A60214B4FF000725A601F4B00229A6078
:1011A0001D4B0022DA601C4B4FF480621A611A4B0F
:1011B0004FF400625A61184B4FF400529A61164B7B
:1011C0004FF48072DA61144B00221A62124B002233
:1011D0005A62114802F09AFD0346002B01D00BF031
:1011E000D1FA7B680C4A9A630B4A7B6893630022AE
:1011F0000021122002F010FD122002F029FD83E0F0
:101200000020014000380240000802400423002072
:101210001064024000210140642300204064024029
:101220007B681B683A4A93426ED100233B61394B7D
:101230005B6C384A43F480635364364B5B6C03F455
:1012400080633B613B690023FB60324B1B6B314A7F
:1012500043F0040313632F4B1B6B03F00403FB6089
:10126000FB680023BB602B4B1B6B2A4A43F0010336
:101270001363284B1B6B03F00103BB60BB680F2398
:10128000FB6203233B6300237B6307F12C031946B6
:10129000214803F0CBFA214B214A1A601F4B4FF033
:1012A00080625A601D4B00229A601C4B0022DA605B
:1012B0001A4B4FF480621A61184B4FF400625A6166
:1012C000164B4FF400529A61144B4FF48072DA615E
:1012D000124B00221A62114B00225A620F4802F090
:1012E00015FD0346002B01D00BF04CFA7B680B4A2E
:1012F0009A630A4A7B68936300220021122002F05D
:101300008BFC122002F0A4FC00BF4037BD4680BD1C
:101310000022014000380240000802401422002050
:101320002864024080B500AF164B174A1A60154B6F
:1013300010225A60134B00229A60124B0022DA608E
:10134000104B00221A610F4B00225A610D4B0022F4
:101350001A760C4B00225A760A4B00229A76094BD9
:101360000022DA76074B00221A77064B00225A77C2
:10137000044802F09DFA0346002B01D00BF002FA5C
:1013800000BF80BDC42300200064004080B58AB047
:1013900000AF786007F1140300221A605A609A6067
:1013A000DA601A617B681B68194A93422CD10023CA
:1013B0003B61184B1B6C174A43F000731364154BC9
:1013C0001B6C03F000733B613B690023FB60114B16
:1013D0001B6B104A43F0020313630E4B1B6B03F0AD
:1013E0000203FB60FB684FF440737B610223BB6127
:1013F0000023FB6103233B6209237B6207F1140393
:101400001946054803F012FA00BF2837BD4680BDD3
:1014100000640040003802400004024080B500AF84
:10142000064B074A1A60054802F020FC0346002BD1
:1014300001D00BF0A7F900BF80BD00BFEC23002056
:101440000030024080B485B000AF78607B681B68D4
:101450000B4A93420DD10023FB600A4B1B6B094AD8
:1014600043F480531363074B1B6B03F48053FB60FF
:10147000FB6800BF1437BD465DF8047B704700BFB2
:10148000003002400038024080B582B000AF002337
:101490007B60144B1B6B134A43F480031363114BA3
:1014A0001B6B03F480037B607B68002200213820E3
:1014B00002F0B2FB382002F0CBFB002200213920E1
:1014C00002F0AAFB392002F0C3FB002200213A20DF
:1014D00002F0A2FB3A2002F0BBFB00BF0837BD467A
:1014E00080BD00BF0038024080B58CB000AF07F16E
:1014F000140300221A605A609A60DA601A610023AD
:101500003B616B4B1B6B6A4A43F004031363684BEC
:101510001B6B03F004033B613B690023FB60644BDE
:101520001B6B634A43F080031363614B1B6B03F037
:101530008003FB60FB680023BB605D4B1B6B5C4A58
:1015400043F0010313635A4B1B6B03F00103BB60B1
:10155000BB6800237B60564B1B6B554A43F002036C
:101560001363534B1B6B03F002037B607B68002308
:101570003B604F4B1B6B4E4A43F0080313634C4BCD
:101580001B6B03F008033B603B6800224FF4C04133
:10159000484803F0FFFA00224FF48051464803F018
:1015A000F9FA00220421454803F0F4FA0023FB6213
:1015B0004BE0434AFB6A52F82330BB62BB6A002B04
:1015C00040D0BB6A9B887B613E4AFB6A1344C233AE
:1015D0001B78013B092B2DD801A252F823F000BF44
:1015E00013160008091600081D1600081D1600082D
:1015F0002B160008131600081316000835160008ED
:101600001D160008131600080323BB610023FB61AD
:1016100010E00023BB610123FB610BE00123BB61F0
:101620000023FB6101233B6204E00023BB61002334
:10163000FB6100BFBB6A1B6807F114021146184624
:1016400003F0F4F8FB6A0133FB62FB6A092BB0DD9F
:101650004FF4C0437B610123BB610023FB61002386
:101660003B6207F114031946124803F0DFF84FF408
:1016700080537B610123BB610023FB6100233B623C
:1016800007F1140319460C4803F0D0F804237B61DA
:101690000123BB610023FB6100233B6207F11403BC
:1016A0001946064803F0C2F800BF3037BD4680BD7A
:1016B000003802400008024000040240000C0240D2
:1016C0002C0100205C03002080B500AF184B194AA4
:1016D0001A60174B4FF482725A60154B00229A60C1
:1016E000134B4FF40062DA60114B00221A61104B69
:1016F00001225A610E4B4FF400729A610C4B20226A
:10170000DA610B4B00221A62094B00225A62084B25
:1017100000229A62064B0A22DA62054804F01CF89D
:101720000346002B01D00BF02DF800BF80BD00BF99
:10173000FC230020003C004080B58AB000AF7860F8
:1017400007F1140300221A605A609A60DA601A6185
:101750007B681B681D4A934234D100233B611C4BBC
:101760001B6C1B4A43F400431364194B1B6C03F4BA
:1017700000433B613B690023FB60154B1B6B144A24
:1017800043F004031363124B1B6B03F00403FB6071
:10179000FB684FF4E0537B610223BB610023FB61D4
:1017A00003233B6206237B6207F1140319460948B1
:1017B00003F03CF800220021332002F02DFA332000
:1017C00002F046FA00BF2837BD4680BD003C00400D
:1017D000003802400008024080B483B000AF00230C
:1017E0007B60104B5B6C0F4A43F4804353640D4B9A
:1017F0005B6C03F480437B607B6800233B60094B98
:101800001B6C084A43F080531364064B1B6C03F0B7
:1018100080533B603B6800BF0C37BD465DF8047BDE
:10182000704700BF0038024080B58CB000AF7860D0
:101830000023FB620023BB62002279682D2002F0A6
:10184000EBF92D2002F004FA0023FB601F4B1B6C08
:101850001E4A43F4807313641C4B1B6C03F48073A7
:10186000FB60FB6807F1100207F1140311461846EC
:1018700003F040FF03F02AFF03465B00FB62FB6AB4
:10188000134AA2FB03239B0C013BBB62114B124A80
:101890001A60104B40F2E732DA600E4ABB6A5360BE
:1018A0000C4B00221A610B4B00229A60094804F08D
:1018B0004BFC0346002B04D1064804F070FC0346A1
:1018C00000E0012318463037BD4680BD0038024095
:1018D00083DE1B43542400200020004080B400AF6E
:1018E00000BFBD465DF8047B704780B400AFFEE7E3
:1018F00080B400AFFEE780B400AFFEE780B400AF75
:10190000FEE780B400AF00BFBD465DF8047B7047C2
:1019100080B400AF00BFBD465DF8047B704780B463
:1019200000AF00BFBD465DF8047B704780B400AFD8
:1019300000BFBD465DF8047B7047000080B500AF76
:10194000054800F060FF054800F05DFF044800F026
:101950005AFF00BF80BD00BF74220020CC210020B0
:10196000BC22002080B500AF034804F06FFD03489F
:1019700004F06CFD00BF80BD94240020542400209E
:1019800080B500AF024804F021FA00BF80BD00BF5F
:10199000FC23002080B500AF024804F057FD00BFD3
:1019A00080BD00BF5425002080B500AF024802F082
:1019B000D5FA00BF80BD00BF0423002080B500AF72
:1019C000024802F0CBFA00BF80BD00BF1422002005
:1019D00080B500AF024802F0C1FA00BF80BD00BF71
:1019E0006423002080B500AF00200AF0FDFB00BF9B
:1019F00080BD80B400AF01231846BD465DF8047B6E
:101A0000704780B582B000AF786039600FF044FF56
:101A1000034616221A604FF0FF3318460837BD46BA
:101A200080BD80B582B000AF78604FF0FF3178683C
:101A3000FFF7E7FFFEE780B586B000AFF860B9605A
:101A40007A6000237B610AE0AFF300800146BB6847
:101A50005A1CBA60CAB21A707B6901337B617A6919
:101A60007B689A42F0DB7B6818461837BD4680BD1C
:101A700080B586B000AFF860B9607A6000237B6102
:101A800009E0BB685A1CBA601B781846AFF30080A7
:101A90007B6901337B617A697B689A42F1DB7B6801
:101AA00018461837BD4680BD80B483B000AF78605B
:101AB0004FF0FF3318460C37BD465DF8047B704786
:101AC00080B483B000AF786039603B684FF4005257
:101AD0005A60002318460C37BD465DF8047B7047FA
:101AE00080B483B000AF7860012318460C37BD4640
:101AF0005DF8047B704780B485B000AFF860B960D2
:101B00007A60002318461437BD465DF8047B7047A1
:101B100080B586B000AF7860144A154BD31A7B614C
:101B20007B693B61134B1B68002B02D1114B124A9E
:101B30001A60104B1A687B6813443A699A4207D2BC
:101B40000FF0AAFE03460C221A604FF0FF3309E0A3
:101B5000084B1B68FB60074B1A687B681344054AF7
:101B60001360FB6818461837BD4680BD0000022090
:101B700000040000CC050020082B002080B400AF3A
:101B8000084BD3F88830074A43F47003C2F8883012
:101B9000044B4FF000629A6000BFBD465DF8047BC5
:101BA000704700BF00ED00E080B59AB000AF07F1CC
:101BB000580300221A605A609A60DA6007F1440301
:101BC00000221A605A609A60DA601A6107F13C03D9
:101BD00000221A605A6007F1200300221A605A603E
:101BE0009A60DA601A615A619A613B4620220021AC
:101BF00018460FF002FE5A4B5A4A1A60584B002200
:101C00005A60574B60229A60554B41F26702DA6086
:101C1000534B00221A61524B00225A61504B8022D2
:101C20009A614F4804F090FA0346002B01D00AF065
:101C3000A9FD4FF48053BB6507F158031946484886
:101C400004F0D2FD0346002B01D00AF09BFD44486E
:101C500004F0C9FA0346002B01D00AF093FD0023DB
:101C60007B640023BB6407F1440319463C4804F03D
:101C70007FFE0346002B01D00AF084FD7023FB6336
:101C800080233B6407F13C031946354805F078FA98
:101C90000346002B01D00AF075FD70233B62002340
:101CA0007B620023BB620023FB6200233B630023B3
:101CB0007B630023BB6307F12003002219462848F9
:101CC00004F0CCFC0346002B01D00AF05BFD07F1C9
:101CD000200304221946224804F0C0FC0346002BCE
:101CE00001D00AF04FFD07F12003082219461C48D5
:101CF00004F0B4FC0346002B01D00AF043FD02239C
:101D0000BB6207F120030C221946154804F0A6FC1B
:101D10000346002B01D00AF035FD4FF400633B6011
:101D20004FF480637B600023BB600023FB600023D3
:101D30003B614FF400537B610023FB613B46194636
:101D4000074805F099FA0346002B01D00AF01AFD66
:101D5000034800F023FB00BF6837BD4680BD00BFCD
:101D6000942500200000014080B58AB000AF07F143
:101D7000200300221A605A603B1D00221A605A603C
:101D80009A60DA601A615A619A61284B4FF080427A
:101D90001A60264B00225A60244B60229A60234B23
:101DA00040F63302DA60214B00221A611F4B802279
:101DB0009A611E4804F017FA0346002B01D00AF07E
:101DC000E1FC00233B6280237B6207F1200319467C
:101DD000164805F0D5F90346002B01D00AF0D2FCD5
:101DE00060237B600023BB600023FB6000237B61DA
:101DF0003B1D042219460D4804F030FC0346002B1D
:101E000001D00AF0BFFC3B1D0C221946074804F024
:101E100025FC0346002B01D00AF0B4FC034800F077
:101E2000BDFA00BF2837BD4680BD00BFD4250020C5
:101E300080B58CB000AF07F10C03242200211846B6
:101E40000FF0DBFC3B1D00221A605A60204B214A38
:101E50001A601F4B00225A601D4B00229A601C4BD7
:101E60004FF6FF72DA601A4B00221A61184B0022FB
:101E70009A610323FB6000233B6101237B61002304
:101E8000BB610423FB6100233B6201237B620023CF
:101E9000BB620423FB6207F10C0319460C4804F0F3
:101EA0000BFA0346002B01D00AF06CFC00237B6088
:101EB0000023BB603B1D1946054805F061F9034648
:101EC000002B01D00AF05EFC00BF3037BD4680BD5C
:101ED000142500200004004080B58CB000AF07F14D
:101EE0000C032422002118460FF087FC3B1D002222
:101EF0001A605A60204B214A1A601F4B00225A6018
:101F00001D4B00229A601C4B4FF6FF72DA601A4B91
:101F100000221A61184B00229A610323FB60002300
:101F20003B6101237B610023BB610423FB61002330
:101F30003B6201237B620023BB620423FB6207F147
:101F40000C0319460C4804F0B7F90346002B01D0E6
:101F50000AF018FC00237B600023BB603B1D194680
:101F6000054805F00DF90346002B01D00AF00AFCE4
:101F700000BF3037BD4680BDD4240020000800409B
:101F800080B582B000AF3B4600221A605A60154B04
:101F9000154A1A60134B01225A60124B00229A60B4
:101FA000104B41F26702DA600E4B00229A610D4835
:101FB00004F0CAF80346002B01D00AF0E3FB20230B
:101FC0003B6000237B603B461946064805F0D8F885
:101FD0000346002B01D00AF0D5FB00BF0837BD46F1
:101FE00080BD00BF542500200010004080B59AB08D
:101FF00000AF07F1580300221A605A609A60DA6055
:1020000007F1440300221A605A609A60DA601A618C
:1020100007F13C0300221A605A6007F120030022F6
:102020001A605A609A60DA601A615A619A613B4696
:102030002022002118460FF0E0FB5A4B5A4A1A6042
:10204000584B00225A60574B60229A60554B41F220
:102050006702DA60534B00221A61524B00225A6128
:10206000504B80229A614F4804F06EF80346002BD3
:1020700001D00AF087FB4FF48053BB6507F158038A
:102080001946484804F0B0FB0346002B01D00AF083
:1020900079FB444804F0A7F80346002B01D00AF06E
:1020A00071FB06237B640023BB6407F144031946DC
:1020B0003C4804F05DFC0346002B01D00AF062FBB3
:1020C0007023FB6380233B6407F13C0319463548CA
:1020D00005F056F80346002B01D00AF053FB70239D
:1020E0003B6200237B620023BB620023FB62002370
:1020F0003B6300237B630023BB6307F120030022C3
:102100001946284804F0AAFA0346002B01D00AF029
:1021100039FB07F1200304221946224804F09EFAF5
:102120000346002B01D00AF02DFB07F12003082203
:1021300019461C4804F092FA0346002B01D00AF01D
:1021400021FB0223BB6207F120030C22194615482C
:1021500004F084FA0346002B01D00AF013FB4FF47D
:1021600000633B604FF480637B600023BB6000230F
:10217000FB6000233B614FF400537B610023FB6154
:102180003B461946074805F077F80346002B01D077
:102190000AF0F8FA034800F001F900BF6837BD46BD
:1021A00080BD00BF942400200004014080B586B0AB
:1021B00000AF78607B681B68264A93420ED10023EB
:1021C0007B61254B5B6C244A43F001035364224B33
:1021D0005B6C03F001037B617B6936E07B681B6805
:1021E0001E4A934216D100233B611B4B1B6C1A4ABB
:1021F00043F010031364184B1B6C03F010033B6196
:102200003B6900220021362001F006FD362001F056
:102210001FFD1AE07B681B68114A934215D1002309
:10222000FB600D4B5B6C0C4A43F0020353640A4B9A
:102230005B6C03F00203FB60FB68002200212D2091
:1022400001F0EAFC2D2001F003FD00BF1837BD4668
:1022500080BD00BF00000140003802400010004077
:102260000004014080B485B000AF78607B681B68D3
:10227000B3F1804F0DD10023FB60094B1B6C084A62
:1022800043F001031364064B1B6C03F00103FB6076
:10229000FB6800BF1437BD465DF8047B704700BF84
:1022A0000038024080B58CB000AF786007F11C03A5
:1022B00000221A605A609A60DA601A617B681B68B3
:1022C000324A93422CD10023BB61314B1B6C304A04
:1022D00043F0020313642E4B1B6C03F00203BB613B
:1022E000BB6900237B612A4B1B6B294A43F0020325
:1022F0001363274B1B6B03F002037B617B69302365
:10230000FB6102233B6200237B620023BB6202234A
:10231000FB6207F11C0319461E4802F087FA30E001
:102320007B681B681C4A93422BD100233B61184BEE
:102330001B6C174A43F004031364154B1B6C03F02A
:1023400004033B613B690023FB60114B1B6B104A8C
:1023500043F0020313630E4B1B6B03F00203FB609D
:10236000FB68C023FB6102233B6200237B620023E6
:10237000BB620223FB6207F11C031946054802F009
:1023800055FA00BF3037BD4680BD00BF0004004095
:1023900000380240000402400008004080B58EB0C2
:1023A00000AF786007F1240300221A605A609A6037
:1023B000DA601A617B681B68654A93423ED100234C
:1023C0003B62644B1B6B634A43F002031363614B34
:1023D0001B6B03F002033B623B6A0023FB615D4B16
:1023E0001B6B5C4A43F0010313635A4B1B6B03F0F6
:1023F0000103FB61FB694FF460437B620223BB6214
:102400000023FB6200233B6301237B6307F124036A
:102410001946514802F00AFA4FF4E0637B62022346
:10242000BB620023FB6200233B6301237B6307F154
:1024300024031946494802F0F9F984E07B681B68D7
:10244000B3F1804F1FD10023BB61424B1B6B414A4C
:1024500043F0020313633F4B1B6B03F00203BB61AA
:10246000BB6940F608037B620223BB620023FB6268
:1024700000233B6301237B6307F12403194636489D
:1024800002F0D4F95FE07B681B68354A93425AD169
:1024900000237B612F4B1B6B2E4A43F00103136318
:1024A0002C4B1B6B03F001037B617B6900233B61B9
:1024B000284B1B6B274A43F002031363254B1B6B0E
:1024C00003F002033B613B690023FB60214B1B6B64
:1024D000204A43F0040313631E4B1B6B03F00403F9
:1024E000FB60FB6880237B620223BB620023FB62EC
:1024F00000233B6303237B6307F12403194617483A
:1025000002F094F903237B620223BB620023FB6287
:1025100000233B6303237B6307F1240319460E4822
:1025200002F084F94FF4E0737B620223BB62002364
:10253000FB6200233B6303237B6307F124031946FB
:10254000084802F073F900BF3837BD4680BD00BFB0
:102550000000014000380240000402400000024038
:10256000000401400008024080B500AF144B4FF05A
:10257000A0421A60124B04225A60114B0222DA6008
:102580000F4B00221A610E4B02229A610C4B002263
:10259000DA610B4B00221A62094B00225A62084B87
:1025A0000022DA62064B00221A63054802F00BFB98
:1025B0000346002B01D00AF0E5F800BF80BD00BF44
:1025C0001426002080B58AB000AF786007F11403AC
:1025D00000221A605A609A60DA601A617B681B6890
:1025E000B3F1A04F32D100233B611A4B1B6B194A48
:1025F00043F001031363174B1B6B03F001033B61B3
:102600003B694FF4C0537B610223BB610023FB6134
:1026100003233B620A237B6207F1140319460E4829
:1026200002F004F90B4B5B6B0A4A43F080035363DF
:102630000023FB60074B5B6C064A43F48043536402
:10264000044B5B6C03F48043FB60FB6800BF2837DE
:10265000BD4680BD0038024000000240DFF838D09F
:10266000002103E00D4B5B58435004310C480D4BE7
:1026700042189A42F6D30C4A02E0002342F8043B87
:102680000A4B9A42F9D3FFF779FA0AF0F5FF0FF0F7
:1026900009F90AF015F8704700000220BC2C010867
:1026A00000000020B0050020B0050020002B002015
:1026B000FEE7000080B500AF0E4B1B680D4A43F4E7
:1026C000007313600B4B1B680A4A43F4806313606A
:1026D000084B1B68074A43F480731360032001F022
:1026E00090FA0020FFF7A0F8FFF776F800231846CD
:1026F00080BD00BF003C024080B400AF064B1B7899
:102700001A46064B1B681344044A136000BFBD46BB
:102710005DF8047B704700BF080000201C2A0020E1
:1027200080B400AF034B1B681846BD465DF8047BC0
:10273000704700BF1C2A002080B584B000AF7860CD
:10274000FFF7EEFFB8607B68FB60FB68B3F1FF3F0B
:1027500005D00A4B1B781A46FB681344FB6000BF88
:10276000FFF7DEFF0246BB68D31AFA689A42F7D831
:1027700000BF00BF1037BD4680BD00BF080000206D
:1027800080B584B000AF78600023FB737B68002BBA
:1027900001D1012333E07B681B6C002B09D17868E1
:1027A000FEF738FC7B6800225A647B68002283F8BD
:1027B0003C207B681B6C03F01003002B18D17B6856
:1027C0001B6C23F4885323F0020343F002027B685E
:1027D0001A64786800F0A2FA7B6800225A647B6869
:1027E0001B6C23F0030343F001027B681A6401E0D1
:1027F0000123FB737B68002283F83C20FB7B184697
:102800001037BD4680BD80B584B000AF786000232E
:10281000FB600023BB607B681B681B6803F002033E
:10282000022B0CBF01230023DBB2FB607B681B681B
:102830005B6803F02003202B0CBF01230023DBB2D5
:10284000BB60FB68002B49D0BB68002B46D07B687F
:102850001B6C03F01003002B05D17B681B6C43F449
:1028600000727B681A647B681B689B6803F04053A6
:10287000002B2BD17B681B7E002B27D17B681B682C
:10288000DB6A03F47003002B06D07B681B689B682F
:1028900003F48063002B19D17B681B685A687B683E
:1028A0001B6822F020025A607B681B6C23F4807244
:1028B0007B681A647B681B6C03F48053002B05D182
:1028C0007B681B6C43F001027B681A64786800F037
:1028D000DBF87B681B686FF012021A607B681B686C
:1028E0001B6803F00403042B0CBF01230023DBB29D
:1028F000FB607B681B685B6803F08003802B0CBF68
:1029000001230023DBB2BB60FB68002B57D0BB6800
:10291000002B54D07B681B6C03F01003002B05D1F7
:102920007B681B6C43F400527B681A647B681B68ED
:102930009B6803F44013002B39D17B681B689B6BA9
:1029400003F44013002B06D07B681B689B6803F4DC
:102950008063002B2BD17B681B685B6803F480636A
:10296000002B24D17B681B689B6803F04053002B2D
:102970001DD17B681B7E002B19D17B681B685A68B0
:102980007B681B6822F080025A607B681B6C23F412
:1029900080527B681A647B681B6C03F48073002B85
:1029A00005D17B681B6C43F001027B681A64786870
:1029B0000AF090FE7B681B686FF00C021A607B685F
:1029C0001B681B6803F00103012B0CBF01230023CC
:1029D000DBB2FB607B681B685B6803F04003402B45
:1029E0000CBF01230023DBB2BB60FB68002B17D0B8
:1029F000BB68002B14D07B681B681B6803F00103C5
:102A0000012B0DD17B681B6C43F480327B681A6408
:102A1000786800F04DF87B681B686FF001021A605F
:102A20007B681B681B6803F02003202B0CBF01236D
:102A30000023DBB2FB607B681B685B6803F080638C
:102A4000B3F1806F0CBF01230023DBB2BB60FB68D6
:102A5000002B15D0BB68002B12D07B685B6C43F059
:102A600002027B685A647B681B686FF020021A6060
:102A7000786800F027F87B681B686FF020021A6006
:102A800000BF1037BD4680BD80B483B000AF786012
:102A900000BF0C37BD465DF8047B704780B483B03F
:102AA00000AF786000BF0C37BD465DF8047B70470F
:102AB00080B483B000AF786000BF0C37BD465DF8CE
:102AC000047B704780B483B000AF786000BF0C37E0
:102AD000BD465DF8047B704780B485B000AF786078
:102AE00039600023BB607B6893F83C30012B01D137
:102AF000022305E17B68012283F83C203B681B68C8
:102B0000092B25D97B681B68D9683B681B689BB279
:102B10001A4613465B0013441E3B072202FA03F3D6
:102B2000DA437B681B680A40DA607B681B68D968F7
:102B30003B689A683B681B689BB2184603465B007B
:102B400003441E3B9A407B681B680A43DA6022E01C
:102B50007B681B6819693B681B689BB21A46134661
:102B60005B001344072202FA03F3DA437B681B6815
:102B70000A401A617B681B6819693B689A683B6860
:102B80001B689BB2184603465B0003449A407B686F
:102B90001B680A431A613B685B68062B24D87B6874
:102BA0001B68596B3B685A6813469B001344053BEE
:102BB0001F2202FA03F3DA437B681B680A405A6358
:102BC0007B681B68596B3B681B689BB218463B6867
:102BD0005A6813469B001344053B00FA03F27B68D6
:102BE0001B680A435A634CE03B685B680C2B24D893
:102BF0007B681B68196B3B685A6813469B0013443B
:102C0000233B1F2202FA03F3DA437B681B680A4066
:102C10001A637B681B68196B3B681B689BB218467C
:102C20003B685A6813469B001344233B00FA03F2A7
:102C30007B681B680A431A6323E07B681B68D96AB8
:102C40003B685A6813469B001344413B1F2202FA1B
:102C500003F3DA437B681B680A40DA627B681B680F
:102C6000D96A3B681B689BB218463B685A68134692
:102C70009B001344413B00FA03F27B681B680A4344
:102C8000DA62224BFB607B681B68214A934209D1C0
:102C90003B681B68122B05D1FB685B6843F480021C
:102CA000FB685A607B681B68194A934223D13B68D2
:102CB0001B68102B03D03B681B68112B1BD1FB68D2
:102CC0005B6843F40002FB685A603B681B68102B8A
:102CD00011D1104B1B68104AA2FB03239A0C134618
:102CE0009B0013445B00BB6002E0BB68013BBB6020
:102CF000BB68002BF9D17B68002283F83C200023BD
:102D000018461437BD465DF8047B70470023014028
:102D1000002001400000002083DE1B4380B485B00A
:102D200000AF7860794BFB60FB685B6823F440324E
:102D3000FB685A60FB685A687B685B681A43FB68EB
:102D40005A607B681B685A687B681B6822F4807233
:102D50005A607B681B6859687B681B691A027B682C
:102D60001B680A435A607B681B685A687B681B684B
:102D700022F040725A607B681B6859687B689A68C9
:102D80007B681B680A435A607B681B689A687B688B
:102D90001B6822F400629A607B681B6899687B68F4
:102DA000DA687B681B680A439A607B689B6A584AAA
:102DB000934222D07B681B689A687B681B6822F06C
:102DC00070629A607B681B6899687B689A6A7B6806
:102DD0001B680A439A607B681B689A687B681B685B
:102DE00022F040529A607B681B6899687B68DA6AB7
:102DF0007B681B680A439A600FE07B681B689A68CF
:102E00007B681B6822F070629A607B681B689A6816
:102E10007B681B6822F040529A607B681B689A6846
:102E20007B681B6822F002029A607B681B689968C5
:102E30007B681B7E5A007B681B680A439A607B682C
:102E400093F82030002B1BD07B681B685A687B6886
:102E50001B6842F400625A607B681B685A687B6892
:102E60001B6822F460425A607B681B6859687B6863
:102E70005B6A013B5A037B681B680A435A6007E0A0
:102E80007B681B685A687B681B6822F400625A6082
:102E90007B681B68DA6A7B681B6822F47002DA625E
:102EA0007B681B68D96A7B68DB69013B1A057B6814
:102EB0001B680A43DA627B681B689A687B681B6838
:102EC00022F400729A607B681B6899687B6893F8AB
:102ED00030305A027B681B680A439A607B681B6823
:102EE0009A687B681B6822F480629A607B681B6822
:102EF00099687B685B699A027B681B680A439A60E1
:102F000000BF1437BD465DF8047B704700230140C5
:102F10000100000F80B487B000AF78600023BB6071
:102F200000237B6100233B617B6893F83C30012BDD
:102F300001D102239DE07B68012283F83C207B685D
:102F40001B689B6803F00103012B18D07B681B688A
:102F50009A687B681B6842F001029A60484B1B68C4
:102F6000484AA2FB03239A0C13465B001344BB6040
:102F700002E0BB68013BBB60BB68002BF9D17B68FA
:102F80001B689B6803F00103012B71D17B681B6CEC
:102F900023F4405323F0010343F480527B681A6406
:102FA0007B681B6C03F48073002B02D17B680022CA
:102FB0005A647B68002283F83C207B681B686FF0B2
:102FC00004021A60304BFB60FB685B6803F01F0370
:102FD000002B24D17B681B689B6803F44013002BF3
:102FE0000CBF01230023DBB27B617B681B685B683D
:102FF00003F48063002B0CBF01230023DBB23B6191
:103000007B69002B34D03B69002B31D07B681B6877
:103010009A687B681B6842F480029A6028E07B68AB
:103020001B689B6803F44013002B0CBF0123002393
:10303000DBB27B617B681B685B6803F48063002BF9
:103040000CBF01230023DBB23B617B681B680F4A86
:1030500093420DD17B69002B0AD03B69002B07D02E
:103060007B681B689A687B681B6842F480029A60E0
:10307000002318461C37BD465DF8047B704700BF2F
:103080000000002083DE1B4300230140002001409C
:1030900080B487B000AF78600023BB6000237B6101
:1030A00000233B617B6893F83C30012B01D1022364
:1030B000A5E07B68012283F83C207B681B689B6845
:1030C00003F00103012B18D07B681B689A687B68AA
:1030D0001B6842F001029A604C4B1B684C4AA2FBF1
:1030E00003239A0C13465B001344BB6002E0BB68E9
:1030F000013BBB60BB68002BF9D17B681B689B68F8
:1031000003F00103012B79D17B681B6C23F440533E
:1031100023F0010343F480527B681A647B681B6CC4
:1031200003F48073002B02D17B6800225A647B6811
:10313000002283F83C207B681B686FF004021A6051
:103140007B681B685A687B681B6842F080025A6083
:10315000304BFB60FB685B6803F01F03002B24D13E
:103160007B681B689B6803F44013002B0CBF012392
:103170000023DBB27B617B681B685B6803F48063C0
:10318000002B0CBF01230023DBB23B617B69002BCA
:1031900034D03B69002B31D07B681B689A687B6810
:1031A0001B6842F480029A6028E07B681B689B6879
:1031B00003F44013002B0CBF01230023DBB27B611F
:1031C0007B681B685B6803F48063002B0CBF0123E2
:1031D0000023DBB23B617B681B680F4A93420DD131
:1031E0007B69002B0AD03B69002B07D07B681B68EA
:1031F0009A687B681B6842F480029A600023184634
:103200001C37BD465DF8047B704700BF00000020FE
:1032100083DE1B43002301400020014080B485B0C1
:1032200000AF786039600023FB607B681B686FF03B
:1032300004021A603B68013B032B1FD801A252F81D
:1032400023F000BF73320008693200085F320008C3
:10325000553200087B681B689B6CFB600FE07B6845
:103260001B685B6CFB600AE07B681B681B6CFB6087
:1032700005E07B681B68DB6BFB6000E000BFFB6860
:1032800018461437BD465DF8047B704780B586B09C
:1032900000AFF860B9607A6000233B61FB6893F887
:1032A0003C30012B01D102239EE0FB68012283F810
:1032B0003C20FB681B689B6803F00103012B18D0BE
:1032C000FB681B689A68FB681B6842F001029A6001
:1032D000474B1B68474AA2FB03239A0C13465B002B
:1032E00013443B6102E03B69013B3B613B69002BBE
:1032F000F9D1FB681B689B6803F00103012B72D1B5
:10330000FB681B6C23F4E06323F0010343F4807239
:10331000FB681A64FB681B685B6803F48063002B1E
:1033200007D0FB681B6C23F4405343F48052FB68C6
:103330001A64FB681B6C03F48053B3F5805F06D1FD
:10334000FB685B6C23F00602FB685A6402E0FB68D2
:1033500000225A64FB68002283F83C20FB689B6BC8
:10336000254ADA63FB689B6B244A1A64FB689B6BF3
:10337000234ADA64FB681B686FF002021A60FB687C
:103380001B685A68FB681B6842F080625A601D4BDC
:103390007B61FB6893F83030002B06D07B695B685B
:1033A00043F400527B695A6005E07B695B6823F453
:1033B00000527B695A60FB68986B7B690833194639
:1033C000BA687B6800F050FDFB681B689B6803F0DF
:1033D0004053002B07D1FB681B689A68FB681B6889
:1033E00042F080429A60002318461837BD4680BDDF
:1033F0000000002083DE1B43C13700086738000847
:10340000833800080023014080B485B000AF7860A5
:1034100039607B6893F83C30012B01D102237DE1B8
:103420007B68012283F83C203B681B68092B25D967
:103430007B681B68D9683B681B689BB21A461346B9
:103440005B0013441E3B072202FA03F3DA437B6856
:103450001B680A40DA607B681B68D9683B689A6819
:103460003B681B689BB2184603465B0003441E3B47
:103470009A407B681B680A43DA6022E07B681B681D
:1034800019693B681B689BB21A4613465B001344DC
:10349000072202FA03F3DA437B681B680A401A61C9
:1034A0007B681B6819693B689A683B681B689BB21C
:1034B000184603465B0003449A407B681B680A4336
:1034C0001A617B681B689A6B7B681B6822F4401248
:1034D0009A637B681B68996B3B681B69013B1A0503
:1034E0007B681B680A439A637B681B68996B3B681F
:1034F0005B68DAB23B681B69DBB2D31ADBB2033319
:10350000DBB21A4613469B0013441F2202FA03F350
:10351000DA437B681B680A409A637B681B68996B77
:103520003B681B689BB218463B685B68DAB23B6835
:103530001B69DBB2D31ADBB20333DBB21A46134684
:103540009B00134400FA03F27B681B680A439A63EA
:103550003B689B69744A934222D07B681B689A68D7
:103560007B681B6822F470229A607B681B689968EC
:103570003B689A697B681B680A439A607B681B6892
:103580009A687B681B6822F440129A607B681B680B
:1035900099683B68DA697B681B680A439A600FE0A8
:1035A0007B681B689A687B681B6822F470229A60AB
:1035B0007B681B689A687B681B6822F440129A60DB
:1035C0003B685B7D002B08D07B681B685A687B6872
:1035D0001B6842F480625A6007E07B681B685A6887
:1035E0007B681B6822F480625A603B681B7D002B5D
:1035F00008D07B681B685A687B681B6842F480525D
:103600005A6007E07B681B685A687B681B6822F475
:1036100080525A603B685B68032B2ED0032B40D846
:10362000012B02D0022B14D03BE07B681B685B6946
:103630007A68126823F47F6323F00F0353617B6879
:103640001B6859693B68DA687B681B680A435A61E2
:103650003BE07B681B689B697A68126823F47F6390
:1036600023F00F0393617B681B6899693B68DA68F4
:103670007B681B680A439A6127E07B681B68DB69EB
:103680007A68126823F47F6323F00F03D3617B68A9
:103690001B68D9693B68DA687B681B680A43DA6192
:1036A00013E07B681B681B6A7A68126823F47F63E7
:1036B00023F00F0313627B681B68196A3B68DA68A2
:1036C0007B681B680A431A6200BF184BFB607B686B
:1036D0001B68174A934209D13B681B68122B05D11E
:1036E000FB685B6843F48002FB685A607B681B6878
:1036F0000F4A93420DD13B681B68102B03D03B68E7
:103700001B68112B05D1FB685B6843F40002FB6862
:103710005A607B68002283F83C2000231846143747
:10372000BD465DF8047B704701000F000023014097
:103730000020014080B485B000AF786039607B68BC
:1037400093F83C30012B01D1022331E07B68012248
:1037500083F83C20194BFB60FB685B6823F01F0279
:10376000FB685A60FB685A683B681B681A43FB6831
:103770005A60FB685B6823F44042FB685A60FB6850
:103780005A683B685B681A43FB685A60FB685B6871
:1037900023F47062FB685A60FB685A683B689B6858
:1037A0001A43FB685A607B68002283F83C200023A0
:1037B00018461437BD465DF8047B7047002301406E
:1037C00080B584B000AF78607B689B6BFB60FB6862
:1037D0001B6C03F05003002B3CD1FB681B6C43F4C3
:1037E0000072FB681A64FB681B689B6803F0405317
:1037F000002B2BD1FB681B7E002B27D1FB681B689D
:10380000DB6A03F47003002B06D0FB681B689B681F
:1038100003F48063002B19D1FB681B685A68FB68AE
:103820001B6822F020025A60FB681B6C23F4807234
:10383000FB681A64FB681B6C03F48053002B05D1F2
:10384000FB681B6C43F00102FB681A64F868FFF721
:103850001BF904E0FB689B6BDB6C7868984700BF42
:103860001037BD4680BD80B584B000AF78607B68FE
:103870009B6BFB60F868FFF711F900BF1037BD467E
:1038800080BD80B584B000AF78607B689B6BFB60C7
:10389000FB6840221A64FB685B6C43F00402FB681F
:1038A0005A64F868FFF70EF900BF1037BD4680BDB7
:1038B00080B584B000AF78607B68002B01D1012314
:1038C000EDE07B6893F82030DBB2002B02D1786802
:1038D000FDF75CFD7B681B681A687B681B6822F03B
:1038E00002021A60FEF71CFFF86012E0FEF718FFF4
:1038F0000246FB68D31A0A2B0BD97B685B6A43F438
:1039000000327B685A627B68052283F820200123FD
:10391000C5E07B681B685B6803F00203002BE5D100
:103920007B681B681A687B681B6842F001021A609A
:10393000FEF7F6FEF86012E0FEF7F2FE0246FB68C4
:10394000D31A0A2B0BD97B685B6A43F400327B687D
:103950005A627B68052283F8202001239FE07B6860
:103960001B685B6803F00103002BE5D07B681B7EBE
:10397000012B08D17B681B681A687B681B6842F0C2
:1039800080021A6007E07B681B681A687B681B6806
:1039900022F080021A607B685B7E012B08D17B6875
:1039A0001B681A687B681B6842F040021A6007E0D7
:1039B0007B681B681A687B681B6822F040021A60EB
:1039C0007B689B7E012B08D17B681B681A687B682B
:1039D0001B6842F020021A6007E07B681B681A68C7
:1039E0007B681B6822F020021A607B68DB7E012B5B
:1039F00008D17B681B681A687B681B6822F010027C
:103A00001A6007E07B681B681A687B681B6842F0D5
:103A100010021A607B681B7F012B08D17B681B6832
:103A20001A687B681B6842F008021A6007E07B682E
:103A30001B681A687B681B6822F008021A607B68A2
:103A40005B7F012B08D17B681B681A687B681B6849
:103A500042F004021A6007E07B681B681A687B6802
:103A60001B6822F004021A607B689A687B68DB6836
:103A70001A437B681B691A437B685B6942EA03014E
:103A80007B685B685A1E7B681B680A43DA617B6847
:103A900000225A627B68012283F820200023184606
:103AA0001037BD4680BD000080B485B000AF78609F
:103AB0007B6803F00703FB600C4BDB68BB60BA68F4
:103AC0004FF6FF031340BB60FB681A02BB68134349
:103AD00043F0BF6343F40033BB60044ABB68D36068
:103AE00000BF1437BD465DF8047B704700ED00E071
:103AF00080B400AF044BDB681B0A03F007031846D1
:103B0000BD465DF8047B704700ED00E080B483B0F3
:103B100000AF0346FB7197F90730002B0BDBFB79F5
:103B200003F01F02074997F907305B09012000FAEB
:103B300002F241F8232000BF0C37BD465DF8047B3C
:103B4000704700BF00E100E080B483B000AF0346DF
:103B50003960FB7197F90730002B0ADB3B68DAB25A
:103B60000C4997F907301201D2B20B4483F80023B5
:103B70000AE03B68DAB20849FB7903F00F03043B23
:103B80001201D2B20B441A7600BF0C37BD465DF865
:103B9000047B704700E100E000ED00E080B489B0F4
:103BA00000AFF860B9607A60FB6803F00703FB615F
:103BB000FB69C3F10703042B28BF0423BB61FB6926
:103BC0000433062B02D9FB69033B00E000237B6131
:103BD0004FF0FF32BB6902FA03F3DA43BB681A40C5
:103BE0007B699A404FF0FF317B6901FA03F3D943B7
:103BF0007B680B40134318462437BD465DF8047BB1
:103C0000704780B582B000AF78607868FFF74CFFEE
:103C100000BF0837BD4680BD80B586B000AF034603
:103C2000B9607A60FB7300237B61FFF761FF786105
:103C30007A68B9687869FFF7B1FF024697F90F30E3
:103C400011461846FFF780FF00BF1837BD4680BDFC
:103C500080B582B000AF0346FB7197F90730184674
:103C6000FFF754FF00BF0837BD4680BD80B582B066
:103C700000AF78607B68002B01D101230EE07B68E8
:103C80005B79DBB2002B05D17B6800221A71786862
:103C9000FDF7D8FB7B6801225A71002318460837CC
:103CA000BD4680BD80B487B000AFF860B9607A606F
:103CB00000233B61FB6802225A71FB681B689A680B
:103CC000FB681B6842F001029A6000237B610AE0F6
:103CD0007B699B00BA681A44FB681B6812681A600B
:103CE0007B6901337B617A697B689A42F0D3FB6818
:103CF0001B681B683B61FB6801225A713B691846CF
:103D00001C37BD465DF8047B7047000080B586B067
:103D100000AF786000237B61FEF702FD38617B68AD
:103D2000002B01D1012399E07B68002283F8342025
:103D30007B68022283F835207B681B681A687B68E1
:103D40001B6822F001021A600FE0FEF7E9FC024650
:103D50003B69D31A052B08D97B6820225A657B68FA
:103D6000032283F83520032378E07B681B681B68F7
:103D700003F00103002BE8D17B681B681B687B61A3
:103D80007A69384B13407B617B685A687B689B6813
:103D90001A437B68DB681A437B681B691A437B689C
:103DA0005B691A437B689B691A437B68DB691A432A
:103DB0007B681B6A13437A6913437B617B685B6A88
:103DC000042B07D17B68DA6A7B681B6B13437A6923
:103DD00013437B617B681B687A691A607B681B6888
:103DE0005B697B617B6923F007037B617B685B6AAE
:103DF0007A6913437B617B685B6A042B17D17B680C
:103E00009B6A7A6913437B617B68DB6A002B0ED067
:103E1000786800F091FA0346002B08D07B684022B6
:103E20005A657B68012283F83520012316E07B6800
:103E30001B687A695A61786800F048FA0346FB60AB
:103E40007B68DB6D3F229A40FB689A607B680022AA
:103E50005A657B68012283F83520002318461837FD
:103E6000BD4680BD3F8010F080B586B000AFF860E1
:103E7000B9607A603B600023FB75FB689B6D3B611A
:103E8000FB6893F83430012B01D1022340E0FB683A
:103E9000012283F83420FB6893F83530DBB2012B24
:103EA0002FD1FB68022283F83520FB6800225A6577
:103EB0003B687A68B968F86800F0DAF9FB68DB6D8E
:103EC0003F229A403B699A60FB681B681A68FB684E
:103ED0001B6842F016021A60FB681B6C002B07D0AF
:103EE000FB681B681A68FB681B6842F008021A60CE
:103EF000FB681B681A68FB681B6842F001021A60C5
:103F000005E0FB68002283F834200223FB75FB7D6B
:103F100018461837BD4680BD80B483B000AF7860C6
:103F20007B6893F83530DBB2022B04D07B688022AB
:103F30005A6501230CE07B68052283F835207B68F5
:103F40001B681A687B681B6822F001021A60002354
:103F500018460C37BD465DF8047B704780B586B0C7
:103F600000AF78600023BB608E4B1B688E4AA2FBBB
:103F700003239B0A7B617B689B6D3B613B691B68EC
:103F8000FB607B68DB6D08229A40FB681340002BC6
:103F90001AD07B681B681B6803F00403002B13D046
:103FA0007B681B681A687B681B6822F004021A6031
:103FB0007B68DB6D08229A403B699A607B685B6D89
:103FC00043F001027B685A657B68DB6D01229A40F1
:103FD000FB681340002B12D07B681B685B6903F001
:103FE0008003002B0BD07B68DB6D01229A403B697C
:103FF0009A607B685B6D43F002027B685A657B6860
:10400000DB6D04229A40FB681340002B12D07B68C2
:104010001B681B6803F00203002B0BD07B68DB6D71
:1040200004229A403B699A607B685B6D43F004020E
:104030007B685A657B68DB6D10229A40FB681340F1
:10404000002B43D07B681B681B6803F00803002B20
:104050003CD07B68DB6D10229A403B699A607B689C
:104060001B681B6803F48023002B18D07B681B6837
:104070001B6803F40023002B08D17B681B6C002B0A
:1040800024D07B681B6C786898471FE07B689B6C2A
:10409000002B1BD07B689B6C7868984716E07B6888
:1040A0001B681B6803F48073002B07D17B681B68B7
:1040B0001A687B681B6822F008021A607B681B6C18
:1040C000002B03D07B681B6C786898477B68DB6D9E
:1040D00020229A40FB681340002B00F08F807B6801
:1040E0001B681B6803F01003002B00F087807B68BF
:1040F000DB6D20229A403B699A607B6893F83530EB
:10410000DBB2052B36D17B681B681A687B681B689D
:1041100022F016021A607B681B685A697B681B686C
:1041200022F080025A617B681B6C002B03D17B68F4
:104130009B6C002B07D07B681B681A687B681B6828
:1041400022F008021A607B68DB6D3F229A403B69CF
:104150009A607B68002283F834207B68012283F810
:1041600035207B681B6D002B7ED07B681B6D7868CB
:10417000984779E07B681B681B6803F48023002B59
:104180001DD07B681B681B6803F40023002B0DD136
:104190007B685B6C002B31D07B685B6C78689847E0
:1041A0002CE000BF00000020B5814E1B7B68DB6B5C
:1041B000002B23D07B68DB6B786898471EE07B6818
:1041C0001B681B6803F48073002B0FD17B681B688E
:1041D0001A687B681B6822F010021A607B68002254
:1041E00083F834207B68012283F835207B68DB6B01
:1041F000002B03D07B68DB6B786898477B685B6D2E
:10420000002B32D07B685B6D03F00103002B22D0C2
:104210007B68052283F835207B681B681A687B68F9
:104220001B6822F001021A60BB680133BB607A6927
:104230009A4207D37B681B681B6803F00103002BBD
:10424000F2D100E000BF7B68002283F834207B6855
:10425000012283F835207B68DB6C002B05D07B685E
:10426000DB6C7868984700E000BF1837BD4680BD1A
:1042700080B485B000AFF860B9607A603B60FB68DD
:104280001B681A68FB681B6822F480221A60FB68AE
:104290001B683A685A60FB689B68402B08D1FB6832
:1042A0001B687A689A60FB681B68BA68DA6007E086
:1042B000FB681B68BA689A60FB681B687A68DA60FA
:1042C00000BF1437BD465DF8047B704780B485B0ED
:1042D00000AF78607B681B68DBB2103B144AA2FB1E
:1042E00003231B09FB60134AFB6813441B781A461F
:1042F0007B68DA65FB68032B09D97B681B6823F4AC
:104300007F7323F003031A1D7B689A6507E07B68BF
:104310001B6823F47F7323F003037A6893657B683B
:104320009B6D18461437BD465DF8047B704700BF8F
:10433000ABAAAAAA6C25010880B485B000AF78604A
:104340000023FB737B689B6ABB607B689B69002BC7
:104350001FD1BB68032B56D801A252F823F000BF2F
:1043600071430008834300087143000807440008B4
:104370007B68DB6A03F08073002B46D00123FB735C
:1043800043E07B68DB6AB3F1C07F40D10123FB735C
:104390003DE07B689B69B3F5005F21D1BB68032BCF
:1043A00037D801A252F823F0B9430008BF430008F0
:1043B000B9430008D14300080123FB7330E07B6858
:1043C000DB6A03F08073002B25D00123FB7322E00E
:1043D0007B68DB6AB3F1C07F1FD10123FB731CE054
:1043E000BB68022B03D9BB68032B03D018E0012361
:1043F000FB7315E07B68DB6A03F08073002B0ED043
:104400000123FB730BE000BF0AE000BF08E000BF20
:1044100006E000BF04E000BF02E000BF00E000BF14
:10442000FB7B18461437BD465DF8047B704700BF20
:1044300080B586B000AFF860B960C7E900230123FA
:10444000FB75234B1B7E012B01D102233BE0204B4C
:1044500001221A764CF2503000F070F80346FB75DA
:10446000FB7D002B2BD1FB68002B05D13B78194637
:10447000B86800F01BF916E0FB68012B05D13B88FA
:104480001946B86800F0EEF80DE0FB68022B05D184
:104490003B681946B86800F0C3F804E0D7E9002388
:1044A000B86800F08BF84CF2503000F047F8034643
:1044B000FB75084B1B69074A23F001031361044B8A
:1044C00000221A76FB7D18461837BD4680BD00BF16
:1044D000202A0020003C024080B483B000AF0023BB
:1044E000FB710B4B1B69002B0BDA094B094A5A6015
:1044F000074B094A5A60064B1B69002B01DA01235E
:10450000FB71FB7918460C37BD465DF8047B70479C
:10451000003C024023016745AB89EFCD80B400AF7A
:10452000054B1B69044A43F00043136100231846FE
:10453000BD465DF8047B7047003C024080B584B006
:1045400000AF78600023FB601A4B0022DA61FEF7AF
:10455000E7F8F86010E07B68B3F1FF3F0CD07B68B0
:10456000002B07D0FEF7DCF80246FB68D31A7A6806
:104570009A4201D2032319E00F4BDB6803F4803326
:10458000002BE8D10C4BDB6803F00103002B02D0B9
:10459000094B0122DA60084BDB6803F0F203002BC1
:1045A00003D000F0A5F8012300E0002318461037DF
:1045B000BD4680BD202A0020003C024080B485B06A
:1045C00000AFF860C7E90023144B1B69134A23F4BA
:1045D00040731361114B1B69104A43F4407313611C
:1045E0000E4B1B690D4A43F001031361FB683A68E7
:1045F0001A60BFF36F8F00BFD7E900014FF00002D0
:104600004FF000030A000023F968043113460B60E1
:1046100000BF1437BD465DF8047B7047003C024084
:1046200080B483B000AF786039600D4B1B690C4AD1
:1046300023F4407313610A4B1B69094A43F4007366
:104640001361074B1B69064A43F0010313617B6842
:104650003A681A6000BF0C37BD465DF8047B7047AE
:10466000003C024080B483B000AF78600B467B8092
:104670000D4B1B690C4A23F4407313610A4B1B69F1
:10468000094A43F480731361074B1B69064A43F0E0
:10469000010313617B687A881A8000BF0C37BD461E
:1046A0005DF8047B704700BF003C024080B483B0DB
:1046B00000AF78600B46FB700C4B1B690B4A23F470
:1046C00040731361094B094A1B691361074B1B694E
:1046D000064A43F0010313617B68FA781A7000BF41
:1046E0000C37BD465DF8047B704700BF003C0240BC
:1046F00080B400AF274BDB6803F01003002B08D019
:10470000254BDB6943F01003234AD361214B102270
:10471000DA60204BDB6803F02003002B08D01E4B2F
:10472000DB6943F008031C4AD3611A4B2022DA608C
:10473000184BDB6803F04003002B08D0164BDB69F5
:1047400043F00403144AD361124B4022DA60114B48
:10475000DB6803F08003002B08D00F4BDB6943F0CC
:1047600002030D4AD3610B4B8022DA60094BDB68F0
:1047700003F00203002B08D0074BDB6943F0200352
:10478000054AD361034B0222DA6000BFBD465DF8E3
:10479000047B7047003C0240202A002080B485B092
:1047A00000AF78600B46FB700023FB60FB78002BAA
:1047B00002D10023FB6010E0FB78012B03D14FF402
:1047C0008073FB6009E0FB78022B03D14FF4007388
:1047D000FB6002E04FF44073FB60134B1B69124A0D
:1047E00023F440731361104B1A690F49FB6813439C
:1047F0000B610D4B1B690C4A23F0F80313610A4B44
:104800001A697B68DB001343074A43F00203136114
:10481000054B1B69044A43F48033136100BF14370E
:10482000BD465DF8047B7047003C024080B489B00F
:1048300000AF7860396000237B6100233B61002377
:10484000BB610023FB616BE10122FB6902FA03F308
:104850007B613B681B687A6913403B613A697B69FD
:104860009A4240F05A813B685B68012B0BD03B6851
:104870005B68022B07D03B685B68112B03D03B6859
:104880005B68122B30D17B689B68BB61FB695B0066
:10489000032202FA03F3DB43BA691340BB613B68AE
:1048A000DA68FB695B0002FA03F3BA691343BB6180
:1048B0007B68BA699A607B685B68BB610122FB69AF
:1048C00002FA03F3DB43BA691340BB613B685B68E0
:1048D0001B0903F00102FB6902FA03F3BA691343EF
:1048E000BB617B68BA695A607B68DB68BB61FB6946
:1048F0005B00032202FA03F3DB43BA691340BB6196
:104900003B689A68FB695B0002FA03F3BA691343D8
:10491000BB617B68BA69DA603B685B68022B03D0D5
:104920003B685B68122B23D1FB69DA087B6808328D
:1049300053F82230BB61FB6903F007039B000F2291
:1049400002FA03F3DB43BA691340BB613B681A699F
:10495000FB6903F007039B0002FA03F3BA691343F0
:10496000BB61FB69DA087B680832B96943F8221039
:104970007B681B68BB61FB695B00032202FA03F3DF
:10498000DB43BA691340BB613B685B6803F0030219
:10499000FB695B0002FA03F3BA691343BB617B68EE
:1049A000BA691A603B685B6803F08053002B00F023
:1049B000B4800023FB60604B5B6C5F4A43F4804330
:1049C00053645D4B5B6C03F48043FB60FB685B4AA4
:1049D000FB699B08023352F82330BB61FB6903F08B
:1049E00003039B000F2202FA03F3DB43BA6913406F
:1049F000BB617B68524A93422BD07B68514A9342F9
:104A000025D07B68504A93421FD07B684F4A93421F
:104A100019D07B684E4A934213D07B684D4A93422B
:104A20000DD07B684C4A934207D07B684B4A934237
:104A300001D107230EE008230CE006230AE005233A
:104A400008E0042306E0032304E0022302E001233C
:104A500000E00023FA6902F0030292009340BA6971
:104A60001343BB613549FB699B080233BA6941F8BE
:104A700023203B4B1B68BB613B69DB43BA69134096
:104A8000BB613B685B6803F48033002B03D0BA69D9
:104A90003B691343BB61324ABB691360304B5B68AF
:104AA000BB613B69DB43BA691340BB613B685B6830
:104AB00003F40033002B03D0BA693B691343BB6195
:104AC000274ABB695360264B9B68BB613B69DB434C
:104AD000BA691340BB613B685B6803F48013002B29
:104AE00003D0BA693B691343BB611D4ABB6993603C
:104AF0001B4BDB68BB613B69DB43BA691340BB619D
:104B00003B685B6803F40013002B03D0BA693B6970
:104B10001343BB61124ABB69D360FB690133FB617C
:104B2000FB690F2B7FF690AE00BF00BF2437BD4658
:104B30005DF8047B704700BF003802400038014038
:104B4000000002400004024000080240000C024045
:104B5000001002400014024000180240001C0240F5
:104B6000003C014080B485B000AF78600B467B808C
:104B70007B681A697B881340002B02D00123FB73EA
:104B800001E00023FB73FB7B18461437BD465DF83C
:104B9000047B704780B483B000AF78600B467B80A5
:104BA00013467B707B78002B03D07A887B689A61F0
:104BB00003E07B881A047B689A6100BF0C37BD460E
:104BC0005DF8047B7047F0B58FB00AAF78607B6802
:104BD000002B01D101230FE17B681B68BB607B6860
:104BE00093F8BD33DBB2002B06D17B68002283F83B
:104BF000BC237868FDF7E6FC7B68032283F8BD23BD
:104C0000BB68DB6B03F48073002B02D17B6800224E
:104C10001A617B681B68184602F0F5FB7B681B680D
:104C20003B607E686D4606F110040FCC0FC50FCCBB
:104C30000FC594E8030085E80300331D0ECB3868E8
:104C400002F080FB0346002B05D07B68022283F82C
:104C5000BD230123D0E07B681B680021184602F0C9
:104C6000E3FB0023FB734AE0FA7B79681346DB0021
:104C70009B1A9B000B443D3301221A70FA7B796822
:104C80001346DB009B1A9B000B443C33FA7B1A70E3
:104C9000FA7BFB7B98B279681346DB009B1A9B007A
:104CA0000B44423302461A80FA7B79681346DB00D4
:104CB0009B1A9B000B443F3300221A70FA7B7968E1
:104CC0001346DB009B1A9B000B44443300221A60FE
:104CD000FA7B79681346DB009B1A9B000B44483330
:104CE00000221A60FA7B79681346DB009B1A9B004E
:104CF0000B44503300221A60FB7B0133FB73FA7BB9
:104D00007B685B689A42AFD30023FB7344E0FA7B75
:104D100079681346DB009B1A9B000B4403F2FD13DA
:104D200000221A70FA7B79681346DB009B1A9B00FD
:104D30000B4403F5FE73FA7B1A70FA7B796813460D
:104D4000DB009B1A9B000B4403F2FF1300221A7036
:104D5000FA7B79681346DB009B1A9B000B4403F532
:104D6000017300221A60FA7B79681346DB009B1AF4
:104D70009B000B4403F5027300221A60FA7B7968EA
:104D80001346DB009B1A9B000B4403F504730022BF
:104D90001A60FB7B0133FB73FA7B7B685B689A428A
:104DA000B5D37B681B683B607E686D4606F11004D6
:104DB0000FCC0FC50FCC0FC594E8030085E80300A6
:104DC000331D0ECB386802F059FB0346002B05D08B
:104DD0007B68022283F8BD2301230DE07B6800225B
:104DE00083F838207B68012283F8BD237B681B6829
:104DF000184602F008FD002318461437BD46F0BDE2
:104E000080B586B000AF78607B68002B01D10123AC
:104E10005EE27B681B6803F00103002B75D0884BB2
:104E20009B6803F00C03042B0CD0854B9B6803F0AC
:104E30000C03082B12D1824B5B6803F48003B3F59B
:104E4000800F0BD17E4B1B6803F40033002B5BD02B
:104E50007B685B68002B57D1012339E27B685B6874
:104E6000B3F5803F06D1764B1B68754A43F4803317
:104E700013601DE07B685B68B3F5A02F0CD1704B0D
:104E80001B686F4A43F4802313606D4B1B686C4AA8
:104E900043F4803313600BE0694B1B68684A23F4CA
:104EA00080331360664B1B68654A23F480231360CC
:104EB0007B685B68002B13D0FDF732FC386108E09B
:104EC000FDF72EFC02463B69D31A642B01D903235C
:104ED000FEE15B4B1B6803F40033002BF0D014E0C1
:104EE000FDF71EFC386108E0FDF71AFC02463B693D
:104EF000D31A642B01D90323EAE1514B1B6803F455
:104F00000033002BF0D100E000BF7B681B6803F08A
:104F10000203002B63D04A4B9B6803F00C03002B69
:104F20000BD0474B9B6803F00C03082B1CD1444B60
:104F30005B6803F48003002B16D1414B1B6803F020
:104F40000203002B05D07B68DB68012B01D0012315
:104F5000BEE13B4B1B6823F0F8027B681B69DB005A
:104F6000374913430B603AE07B68DB68002B20D0A5
:104F7000344B01221A60FDF7D3FB386108E0FDF7DE
:104F8000CFFB02463B69D31A022B01D903239FE1D1
:104F90002B4B1B6803F00203002BF0D0284B1B683F
:104FA00023F0F8027B681B69DB00254913430B6083
:104FB00015E0244B00221A60FDF7B2FB386108E0CF
:104FC000FDF7AEFB02463B69D31A022B01D903233E
:104FD0007EE11B4B1B6803F00203002BF0D17B68C2
:104FE0001B6803F00803002B36D07B685B69002B3D
:104FF00016D0154B01221A60FDF792FB386108E0CC
:10500000FDF78EFB02463B69D31A022B01D903231D
:105010005EE10B4B5B6F03F00203002BF0D01BE053
:10502000094B00221A60FDF77BFB38610EE0FDF7AB
:1050300077FB02463B69D31A022B07D9032347E1CA
:105040000038024000004742800E4742884B5B6FA9
:1050500003F00203002BEAD17B681B6803F0040312
:10506000002B00F097800023FB75814B1B6C03F035
:105070008053002B0FD10023BB607D4B1B6C7C4AFF
:1050800043F0805313647A4B1B6C03F08053BB6076
:10509000BB680123FB75774B1B6803F48073002BFF
:1050A00018D1744B1B68734A43F480731360FDF787
:1050B00037FB386108E0FDF733FB02463B69D31A42
:1050C000022B01D9032303E16A4B1B6803F48073AD
:1050D000002BF0D07B689B68012B06D1644B1B6FC3
:1050E000634A43F0010313671CE07B689B68052B50
:1050F0000CD15F4B1B6F5E4A43F0040313675C4B9C
:105100001B6F5B4A43F0010313670BE0584B1B6FA7
:10511000574A23F001031367554B1B6F544A23F082
:10512000040313677B689B68002B15D0FDF7F8FA22
:1051300038610AE0FDF7F4FA02463B69D31A41F2FE
:105140008832934201D90323C2E0494B1B6F03F01D
:105150000203002BEED014E0FDF7E2FA38610AE01A
:10516000FDF7DEFA02463B69D31A41F288329342D8
:1051700001D90323ACE03E4B1B6F03F00203002B6D
:10518000EED1FB7D012B05D1394B1B6C384A23F046
:10519000805313647B689B69002B00F09880344B2C
:1051A0009B6803F00C03082B5CD07B689B69022B87
:1051B00041D1314B00221A60FDF7B2FA386108E0A4
:1051C000FDF7AEFA02463B69D31A022B01D903233D
:1051D0007EE0274B1B6803F00073002BF0D17B6847
:1051E000DA697B681B6A1A437B685B6A9B011A4316
:1051F0007B689B6A5B08013B1B041A437B68DB6A84
:105200001B061B4913434B601B4B01221A60FDF721
:1052100087FA386108E0FDF783FA02463B69D31A42
:10522000022B01D9032353E0114B1B6803F00073D9
:10523000002BF0D04BE0104B00221A60FDF770FA03
:10524000386108E0FDF76CFA02463B69D31A022B7D
:1052500001D903233CE0064B1B6803F00073002BCD
:10526000F0D134E07B689B69012B07D101232FE04B
:10527000003802400070004060004742164B5B68F7
:10528000FB60FB6803F480027B68DB699A421CD1F7
:10529000FB6803F03F027B681B6A9A4215D1FA68EB
:1052A00047F6C07313407A68526A93420DD1FB6887
:1052B00003F440327B689B6A9A4206D1FB6803F094
:1052C00070627B68DB6A9A4201D0012300E0002310
:1052D00018461837BD4680BD0038024080B584B0FE
:1052E00000AF786039607B68002B01D10123CCE0EE
:1052F000684B1B6803F00F033A689A420CD9654B60
:105300003A68D2B21A70634B1B6803F00F033A6815
:105310009A4201D00123B8E07B681B6803F00203C6
:10532000002B20D07B681B6803F00403002B05D002
:10533000594B9B68584A43F4E05393607B681B6861
:1053400003F00803002B05D0534B9B68524A43F4EB
:1053500060439360504B9B6823F0F0027B689B682E
:105360004D4913438B607B681B6803F00103002BDE
:1053700044D07B685B68012B07D1474B1B6803F463
:105380000033002B19D101237FE07B685B68022B7F
:1053900003D07B685B68032B07D13F4B1B6803F08E
:1053A0000073002B09D101236FE03B4B1B6803F016
:1053B0000203002B01D1012367E0374B9B6823F0E8
:1053C00003027B685B68344913438B60FDF7A8F9DF
:1053D000F8600AE0FDF7A4F90246FB68D31A41F22F
:1053E0008832934201D903234FE02B4B9B6803F093
:1053F0000C027B685B689B009A42EBD1254B1B68D3
:1054000003F00F033A689A420CD2224B3A68D2B2A8
:105410001A70204B1B6803F00F033A689A4201D0C0
:10542000012332E07B681B6803F00403002B08D0E3
:10543000194B9B6823F4E0527B68DB6816491343E1
:105440008B607B681B6803F00803002B09D0124BAC
:105450009B6823F460427B681B69DB000E491343A1
:105460008B6000F021F802460B4B9B681B0903F090
:105470000F030A49CB5C22FA03F3094A1360094B74
:105480001B681846FCF7D0F9002318461037BD46B4
:1054900080BD00BF003C0240003802405425010896
:1054A00000000020040000202DE9B04F94B000AFB0
:1054B00000237B640023FB6400233B640023BB6464
:1054C000794B9B6803F00C03082B0DD0082B00F2DE
:1054D000E180002B02D0042B03D0DBE0734BBB64D4
:1054E000DBE0734BBB64D8E06F4B5B6803F03F03BA
:1054F0007B646D4B5B6803F48003002B63D06A4BC5
:105500005B689B090022BB63FA63BB6BC3F30803B0
:105510003B6300237B63D7E90C4522462B464FF0C3
:1055200000004FF00001590141EAD26150010246EA
:105530000B462146511A3961294663EB01037B6111
:105540004FF000024FF00003D7E904AB59468B013E
:10555000514643EA916351468A015146B2EB010834
:10556000594663EB01094FF000024FF000034FEA88
:10557000C90343EA58734FEAC80290469946234646
:1055800018EB0303BB602B4649EB0303FB604FF0B2
:1055900000024FF00003D7E9024529464B0221469D
:1055A00043EAD15321464A02104619467B6C002239
:1055B000BB62FA62D7E90A23FBF720FA02460B46E0
:1055C0001346FB6458E0384B5B689B090022184681
:1055D0001146C0F308033B6200237B62D7E90889C8
:1055E00042464B464FF000004FF00001590141EA9E
:1055F000D261500102460B464146B2EB010A4946D0
:1056000063EB010B4FF000024FF000034FEA8B13E6
:1056100043EA9A634FEA8A12B2EB0A0463EB0B0582
:105620004FF000024FF00003EB0043EA5473E20036
:1056300014461D464346E3183B604B4645EB0303C7
:105640007B604FF000024FF00003D7E90045294688
:105650008B02214643EA915321468A02104619469D
:105660007B6C0022BB61FA61D7E90623FBF7C6F920
:1056700002460B461346FB640B4B5B681B0C03F0A6
:10568000030301335B003B64FA6C3B6CB2FBF3F346
:10569000BB6402E0054BBB6400BFBB6C18465037CF
:1056A000BD46BDE8B08F00BF003802400024F400C2
:1056B00000127A0080B400AF034B1B681846BD4649
:1056C0005DF8047B704700BF0000002080B500AF8C
:1056D000FFF7F0FF0246054B9B689B0A03F00703A8
:1056E0000349CB5C22FA03F3184680BD0038024020
:1056F0006425010880B483B000AF786039607B68AE
:105700000F221A60124B9B6803F003027B685A60F9
:105710000F4B9B6803F0F0027B689A600C4B9B6810
:1057200003F4E0527B68DA60094B9B68DB0803F402
:10573000E0527B681A61074B1B6803F00F023B685D
:105740001A6000BF0C37BD465DF8047B704700BF90
:1057500000380240003C024080B582B000AF786063
:105760007B68002B01D1012356E07B6800229A62FE
:105770007B6893F85130DBB2002B06D17B680022A6
:1057800083F850207868FBF7D7FF7B68022283F804
:1057900051207B681B681A687B681B6822F04002F6
:1057A0001A607B685A687B689B681A437B68DB6871
:1057B0001A437B681B691A437B685B691A437B68E1
:1057C0009B6903F400731A437B68DB691A437B68A7
:1057D0001B6A42EA03017B689A6A7B681B680A437A
:1057E0001A607B689B691B0C03F004017B685A6A92
:1057F0007B681B680A435A607B681B68DA697B68B0
:105800001B6822F40062DA617B6800225A657B68BB
:10581000012283F85120002318460837BD4680BD79
:1058200080B588B000AFF860B9603B601346FB807C
:105830000023FB77FB6893F85030012B01D1022342
:105840001EE1FB68012283F85020FCF769FFB86174
:10585000FB88FB82FB6893F85130DBB2012B02D04E
:105860000223FB7703E1BB68002B02D0FB88002BEF
:1058700002D10123FB77FAE0FB68032283F8512071
:10588000FB6800225A65FB68BA681A63FB68FA88ED
:105890009A86FB68FA88DA86FB6800229A63FB68BE
:1058A00000229A87FB680022DA87FB6800225A648C
:1058B000FB6800221A64FB689B68B3F5004F07D1B0
:1058C000FB681B681A68FB681B6842F480421A6018
:1058D000FB681B681B6803F04003402B07D0FB6884
:1058E0001B681A68FB681B6842F040021A60FB687C
:1058F000DB68B3F5006F4BD1FB685B68002B02D00F
:10590000FB8A012B3ED1FB681B6B1A88FB681B6866
:10591000DA60FB681B6B9A1CFB681A63FB68DB8E02
:105920009BB2013B9AB2FB68DA862BE0FB681B68EE
:105930009B6803F00203022B12D1FB681B6B1A88D1
:10594000FB681B68DA60FB681B6B9A1CFB681A63B8
:10595000FB68DB8E9BB2013B9AB2FB68DA8611E0F2
:10596000FCF7DEFE0246BB69D31A3A689A4203D8B6
:105970003B68B3F1FF3F02D13B68002B02D1032308
:10598000FB7774E0FB68DB8E9BB2002BCED14CE042
:10599000FB685B68002B02D0FB8A012B40D1FB68BF
:1059A0001A6BFB681B680C3312781A70FB681B6B50
:1059B0005A1CFB681A63FB68DB8E9BB2013B9AB2F0
:1059C000FB68DA862CE0FB681B689B6803F0020327
:1059D000022B13D1FB681A6BFB681B680C3312781F
:1059E0001A70FB681B6B5A1CFB681A63FB68DB8E22
:1059F0009BB2013B9AB2FB68DA8611E0FCF790FE9D
:105A00000246BB69D31A3A689A4203D83B68B3F19D
:105A1000FF3F02D13B68002B02D10323FB7726E036
:105A2000FB68DB8E9BB2002BCDD1BA693968F86870
:105A300000F048FB0346002B02D0FB6820225A6589
:105A4000FB689B68002B0AD100233B61FB681B6845
:105A5000DB683B61FB681B689B683B613B69FB68DB
:105A60005B6D002B02D00123FB7700E000BFFB68D9
:105A7000012283F85120FB68002283F85020FB7F2D
:105A800018462037BD4680BD80B58CB000AFF860A9
:105A9000B9607A607B800123FB62002387F82B309A
:105AA000FB6893F85030012B01D102238AE1FB6897
:105AB000012283F85020FCF733FE7862FB6893F8EC
:105AC000513087F82330FB685B68FB617B887B8300
:105AD00097F82330012B0FD0FB69B3F5827F07D1F4
